:100000000020001039010000950100009D01000052
:10001000A5010000AD010000B501000000000000D6
:10002000000000000000000000000000BD01000012
:10003000C501000000000000CD010000D501000056
:10004000DD010000DD010000DD010000DD01000038
:10005000DD010000DD010000DD010000DD01000028
:10006000DD010000DD010000DD010000DD01000018
:10007000DD010000DD010000DD010000DD01000008
:10008000DD010000DD010000DD010000DD010000F8
:10009000DD010000DD010000DD010000DD010000E8
:1000A000DD010000DD010000DD010000DD010000D8
:1000B000DD010000DD010000DD010000DD010000C8
:1000C000DD010000DD010000DD010000DD010000B8
:1000D000DD010000DD010000DD010000DD010000A8
:1000E000E11F0000DD010000DD010000DD01000076
:1000F000DD01000021250000DD010000DD01000020
:10010000DD010000DD010000DD010000DD01000077
:10011000DD010000DD010000DD010000DD01000067
:10012000DD0100008456000000000010980100006E
:10013000980100104805000080B582B000AF104B58
:100140007B60104B3B6007E07A68131D7B603B6867
:10015000191D396012681A603B680B4A9342F3D349
:100160000A480B494FF000028842B8BF40F8042B00
:10017000FADB02F015FC02F075FC00BFFDE700BFE2
:100180008456000000000010980100109801001033
:10019000E006001080B400AF00BFFDE780B400AF00
:1001A00000BFFDE780B400AF00BFFDE780B400AF43
:1001B00000BFFDE780B400AF00BFFDE780B400AF33
:1001C00000BFFDE780B400AF00BFFDE780B400AF23
:1001D00000BFFDE780B400AF00BFFDE780B400AF13
:1001E00000BFFDE780B584B000AF0346FB71FB792B
:1001F000012202FA03F3FB81FB894FF6FF711846D7
:1002000001F000FC00BF1037BD4680BD80B500AFD7
:100210004FF6FF71002001F0F5FB00BF80BDFFFF2E
:1002200080B58AB002AF1D4B1B78184601F092FAD8
:100230000023FB6129E0FB69DBB21A46520013443C
:100240009B00DBB20233FB76154B1B68FA699A42BE
:1002500001D13E2200E020221249FB6951F82330EF
:10026000381D00931346104A142103F05BF90F4B1D
:1002700018780A4B1B783A1DF97E00930346042038
:1002800001F006FBFB690133FB61FB69042BD2DD46
:1002900000BF00BF2037BD4680BD00BFA3010010D6
:1002A0009801001000000010B0510000A2010010E1
:1002B00080B500AF234A2449244800F066FE244B51
:1002C00093F90330DAB2224B93F90030DBB21344D6
:1002D000DBB25AB21E4BDA701D4B93F90430DAB21E
:1002E0001B4B93F90130DBB21344DBB25AB2184B0B
:1002F0001A71174B93F90530DAB2154B93F90230A6
:10030000DBB21344DBB25AB2114B5A71104B93F962
:1003100003301E2B10DC0E4B93F9033013F11E0F2C
:100320000ADB0B4B93F904301E2B05DC084B93F9C9
:10033000043013F11E0F01DA012300E000231846F8
:1003400080BD00BFA1010010A00100109F0100109E
:100350009C01001080B582B000AF00F0FFFF786014
:10036000124B1B783B607B687C2B06D80F4B01221D
:100370001A700F4B00221A7005E00C4B00221A7005
:100380000B4B01221A70094B1B781A463B689342AB
:1003900001D1002306E0074B1B68C821184600F076
:1003A000FFF9012318460837BD4680BDA2010010A1
:1003B000A30100101400001080B500AF524B5B6A1F
:1003C0004FF4C871184600F0EBF94F4B5B6A4FF4DD
:1003D000C871184600F0E4F94B4B1B691E21184602
:1003E00000F0DEF9484B5B6A4FF4C871184600F024
:1003F000D7F9454BDB6A4FF4C871184600F0D0F9C5
:10040000414B5B6A4FF4C871184600F0C9F93E4B86
:100410001B694FF49671184600F0C2F93A4BDB6A3B
:100420004FF4C871184600F0BBF9374B5B6A4FF4C4
:10043000C871184600F0B4F94FF4C871002002F0FA
:1004400057F9314B1B694FF49671184600F0A8F923
:100450002D4B1B694FF49671184600F0A1F92A4BF9
:10046000DB684FF4C871184600F09AF9264B5B6AB6
:100470004FF4C871184600F093F9234B1B694FF4F1
:100480009671184600F08CF91F4BDB6A4FF4C87167
:10049000184600F085F91C4B5B6A4FF4FA71184658
:1004A00000F07EF94FF4C871002002F021F9164BDC
:1004B0005B6C4FF49671184600F072F9124B5B6C4E
:1004C0004FF49671184600F06BF90F4B5B6C4FF4CC
:1004D0009671184600F064F90B4B1B694FF4967146
:1004E000184600F05DF9084BDB6A4FF4C8711846F6
:1004F00000F056F9044B5B6A4FF41671184600F091
:100500004FF900BF80BD00BF1400001080B500AFE0
:10051000114A1249124800F038FD124B93F903308A
:10052000DBB25B42DBB25AB20E4B1A700D4B93F941
:100530000430DBB25B42DBB25AB20A4B5A70094B51
:1005400093F90530DBB2C3F14003DBB25AB2054B7D
:100550009A7000BF80BD00BFA1010010A001001073
:100560009F0100109C01001080B500AF03E0012145
:10057000002002F0BDF800F050FE034603F0010336
:10058000002BF4D000BF00BF80BD90B585B000AF98
:100590000446084611461A462346FB710346BB71C2
:1005A0000B467B7113463B717B79FB810023BB813A
:1005B00000237B8191E0FB89DAB2FB791344D8B246
:1005C000BB89DAB2BB791344DBB23A79194601F040
:1005D00019F8BB89DAB2FB791344D8B2FB89DAB2D5
:1005E000BB791344DBB23A79194601F00BF8BB89A9
:1005F000DBB2FA79D31AD8B2FB89DAB2BB791344E9
:10060000DBB23A79194600F0FDFFFB89DBB2FA79DB
:10061000D31AD8B2BB89DAB2BB791344DBB23A79C8
:10062000194600F0EFFFFB89DBB2FA79D31AD8B292
:10063000BB89DBB2BA79D31ADBB23A79194600F03A
:10064000E1FFBB89DBB2FA79D31AD8B2FB89DBB2FE
:10065000BA79D31ADBB23A79194600F0D3FFBB89D5
:10066000DAB2FB791344D8B2FB89DBB2BA79D31A78
:10067000DBB23A79194600F0C5FFFB89DAB2FB79A3
:100680001344D8B2BB89DBB2BA79D31ADBB23A7958
:10069000194600F0B7FFBB8901339BB2BB81B7F9A4
:1006A0000A30002B08DCBB895B009AB27B891344BB
:1006B0009BB201339BB27B81B7F90A30002B0CDD72
:1006C000FB89013B9BB2FB817A89FB895B009BB272
:1006D000D31A9BB2013B9BB27B81B7F90E20B7F9CD
:1006E0000C309A42BFF667AF00BF00BF1437BD465B
:1006F00090BD90B585B000AF0446084611461A4635
:100700002346FB710346BB710B467B7113463B715D
:100710007B799BB25B429BB2FB8137E07B799BB2DA
:100720005B429BB2BB8126E0B7F90C30B7F90C20D5
:1007300003FB02F2B7F90E30B7F90E1001FB03F319
:100740001A447B79797901FB03F39A420DDCBB896A
:10075000DAB2FB791344D8B2FB89DAB2BB7913441D
:10076000DBB23A79194600F04DFFB7F90C309BB275
:1007700001339BB2BB81B7F90C207B799A42D3DD60
:10078000B7F90E309BB201339BB2FB81B7F90E2053
:100790007B799A42C2DD00BF00BF1437BD4690BDD1
:1007A00080B584B000AF786039600023FB607B685F
:1007B000002B31D027E01C4B03F54053D3F8FC3F0E
:1007C000194A43F0040302F54052C2F8FC3F7B682B
:1007D0009B081946002001F0F3FF134B03F540532B
:1007E000D3F8FC3F104A23F0040302F54052C2F84C
:1007F000FC3F7B689B081946002001F0E1FFFA6886
:100800007B681344FB603B684FF47A7202FB03F38E
:10081000FA689A42CFD303E03968002001F068FFFC
:1008200000BF1037BD4680BD0000015080B584B0C8
:1008300000AF0346FB80FB881B0A9BB2DBB23B7315
:10084000FB88DBB27B7307F10C03022208211846F8
:1008500000F04AFC00BF1037BD4680BD80B582B0B5
:1008600000AF3B1D02220821184600F0F7FB3B7940
:100870001B021AB27B791BB213431BB29BB2184600
:100880000837BD4680BDFFFF80B582B000AF134979
:10089000012001F0FDFF124B02225A60114B1A6831
:1008A000114B9B6FB2FBF3F3104AA2FB03239B098E
:1008B000013B7B600A4A7B68D360094B00225A6186
:1008C000074B01225A60FFF74FFE054B9B683B60C8
:1008D0003B6818460837BD4680BD00BF401901007F
:1008E00000800140B000001000800440D34D621031
:1008F00080B586B002AF03463960FB71386803F0FB
:10090000B6FC0346FB60FA6813469B079B1A9B00E4
:100910009B1A6033DA0F13445B10FB72074B1A7893
:10092000074B1B78F979F87A009313463A6800F080
:10093000AFFF00BF1037BD4680BD00BFA201001051
:10094000A301001080B584B000AF134B1B7818468C
:1009500000F000FF11490220FFF7CAFF10490C20E8
:10096000FFF7C6FF0F492020FFF7C2FFFFF776FF12
:100970000346FB81FA893B1D0B49184602F0B6F885
:100980003B1D19462A20FFF7B3FFFFF7EDFD00BF1F
:100990001037BD4680BD00BFA3010010B851000054
:1009A000C0510000C8510000D4510000B0B590B053
:1009B00000AF264BDB68C8211846FFF7F1FE244A3A
:1009C00007F1280307CA83E80700224B3C1D1D4698
:1009D0000FCD0FC40FCD0FC42B6823600023FB6322
:1009E0002AE0FB6B9B0040333B4453F83C3C7B6369
:1009F0000023BB631AE0184B1B78184600F0AAFED0
:100A0000796B1820FFF774FFBB6B9B0040333B44AE
:100A100053F8183C19462420FFF76AFF4FF49671EB
:100A2000002001F065FEBB6B0133BB63BB6B022B87
:100A3000E1DDFB6B0133FB63FB6B082BD1DDFFF7C3
:100A400065FD00BF4037BD46B0BD00BF14000010BB
:100A5000C4520000D0520000A301001080B590B035
:100A600000AF002387F83F300023BB63FFF7F6FE9B
:100A70000346FB8692E097F83F301846FFF7B2FB3B
:100A800097F83F303033DBB20021184600F014FCF9
:100A9000FFF760FC614B1B78184600F05BFE604B73
:100AA0001B781C2220213020FFF76FFD5D491C20A0
:100AB000FFF71EFF5C4B9B68FA211846FFF770FE9C
:100AC00003F082FB0246594B83FB02139911D317A3
:100AD000CB1A40F6B83101FB03F3D31A03F5FA73CE
:100AE0003B63396B002001F003FE4D4B1B781C2249
:100AF00020213020FFF7FDFDFFF7C6FEF862BA6B3C
:100B0000FB6A1344BB633B1DFA6A4949184601F06E
:100B1000EDFF424B1B78184600F01CFE3B1D45497B
:100B2000184603F095FB3D4B1B78184600F012FE6B
:100B30003B1D19462020FFF7DBFEFB8EFA6A9A4226
:100B400002D3FB8E002B1DD13B492C20FFF7D0FE9A
:100B5000FB6A9BB21846FFF769FEFB6AFB86324BC5
:100B60001B6864211846FFF71BFE2F4B5B69C821E9
:100B70001846FFF715FE2C4B9B6A4FF4C8711846B8
:100B8000FFF70EFE97F83F30013387F83F304FF400
:100B90001671002001F0ACFDFFF7E6FC97F83F303E
:100BA000042B7FF668AF1D4B1B78184600F0D2FD72
:100BB00022490A20FFF79CFEBB6B214AA2FB0323BC
:100BC0009B0807F11C001F4A102102F0ABFC07F143
:100BD0001C0319461920FFF78BFEFFF73FFE034663
:100BE00007F10C00184A102102F09CFC07F10C03DD
:100BF00019462820FFF77CFEFFF708FB0021302074
:100C000000F05AFB4FF47A71002001F071FDFFF7FC
:100C1000ABFC00BF4037BD4680BD00BFA301001044
:100C2000A20100105452000014000010F1197605C2
:100C30005C52000090520000605200006C520000B4
:100C4000CDCCCCCC7C5200008852000080B582B064
:100C500000AFFF23FB7100F0E0FA0346BB71BB79E4
:100C600003F00403002B16D0FB7903F00403002BE0
:100C700011D12F4B1B68591C2E4B83FB01235A109B
:100C8000CB17D21A13469B001344CA1A284B1A607A
:100C9000FFF7C6FA28E0BB7903F00203002B16D059
:100CA000FB7903F00203002B11D1214B1B68191DA6
:100CB000204B83FB01235A10CB17D21A13469B00FB
:100CC0001344CA1A1A4B1A60FFF7AAFA0CE0BB7950
:100CD00003F00103002B07D0FB7903F00103002B85
:100CE00002D1134B1B681FE0BB79FB71FFF7E0FAE1
:100CF0000346002B0CD042F20F70FFF797FD0E4910
:100D00003020FFF7F5FD4FF4FA71002001F0F0FC00
:100D1000FFF720FB0346002B01D0FFF781FA3221B9
:100D2000002001F0E5FC96E718460837BD4680BD77
:100D300098010010676666669452000080B584B022
:100D400000AFFFF76DFAFFF781FF0346FB733D4BE2
:100D50001B78184600F0FEFC3B4B1B68C821184668
:100D6000FFF71EFDFB7B042BEBD801A252F823F00A
:100D7000850D00008B0D0000A70D0000DD0D0000AB
:100D8000FB0D0000FFF76AFE58E042F20F70FFF71C
:100D90004DFD2E493020FFF7ABFD4FF44871002088
:100DA00001F0A6FC4AE02A492020FFF7A1FDFFF749
:100DB00055FD0346BB81BA893B1D2649184601F003
:100DC00095FE3B1D19462A20FFF792FD4FF47A71DC
:100DD000002001F08DFCFFF7C7FB2FE01E49142017
:100DE000FFF786FD1D492020FFF782FD1C492C20BE
:100DF000FFF77EFDFFF7E0FA20E01A491420FFF725
:100E000077FD114B9B6AC8211846FFF7C9FC0E4BB2
:100E10005B69C8211846FFF7C3FC0B4B5B68C82110
:100E20001846FFF7BDFC4FF4C871002001F060FCCC
:100E3000044B1B78184600F08DFC00E081E710376A
:100E4000BD4680BDA30100101400001094520000A4
:100E5000C8510000D4510000A0520000A45200006C
:100E6000AC520000B852000080B500AF00F022FE86
:100E70000A21002001F00CFD0021012001F076FA8A
:100E800001F086FB00F07CFB00F044FA00F048FA29
:100E900000F004FA00F062FA0346184603F0B8F9CD
:100EA00000F0AAFDFFF7B2F900F0D2F800F066F802
:100EB00000F096F901220221012000F041FE194BB9
:100EC000D3F8803023F00703164A43F00103C2F839
:100ED000803001220021032000F032FE0122012196
:100EE000032000F02DFE01220221032000F028FE45
:100EF00000220021032000F043FF002201210320F3
:100F000000F03EFF00220221032000F039FFFFF72E
:100F100021FAFFF74BFDFFF715FDFFF70FFF002349
:100F2000184680BD0040044080B582B000AF092360
:100F30003B713B1D012219463A2001F0B3FA3B1DDB
:100F4000012219463A2001F085FA3B791846083704
:100F5000BD4680BD80B584B000AF0346FB7116234B
:100F60003B73FB797B7307F10C03022219463A208D
:100F700001F098FA00BF1037BD4680BD80B500AFC4
:100F80000520FFF7E7FF00BF80BD80B586B000AF4A
:100F9000F860B9607A6000BFFFF7C6FF034603F050
:100FA0000103002BF8D006233B7507F1140301223F
:100FB00019463A2001F076FA07F114030122194686
:100FC0003A2001F047FA3B7D5AB2FB681A700723BA
:100FD0003B7507F11403012219463A2001F062FA29
:100FE00007F11403012219463A2001F033FA3B7D40
:100FF0005AB2BB681A7008233B7507F1140301222B
:1010000019463A2001F04EFA07F11403012219465D
:101010003A2001F01FFA3B7D5AB27B681A7000BF7C
:101020001837BD4680BD80B483B000AF00237B601D
:1010300000237B6002E07B6801337B607B68B3F553
:10104000003FF8DB00BF00BF0C37BD4680BC7047D7
:1010500080B400AF00BFBD4680BC704780B584B08F
:1010600000AF78600B467B8013463B800023FB7209
:101070000023FB607B883B813B88B3F5806F05D8FC
:101080007A883B881344B3F5806F02DD4FF0FF335D
:1010900026E07B881B0A9BB2DBB25033FB727B8855
:1010A000DBB29BB23B81FB7A5B00DBB207F108014C
:1010B0000122184601F0F6F90023FB6002E0FB680C
:1010C0000133FB60FB68B3F5005FF8DBFB7A5B0084
:1010D000DBB23A887968184601F0BCF9B7F90030FC
:1010E00018461037BD4680BD80B58AB000AF786025
:1010F0000B467B8013463B80002387F82730002374
:10110000BB8400237B847B883B843B88B3F5806F62
:1011100005D87A883B881344B3F5806F02DD4FF021
:10112000FF3359E07B881B0A9BB2DBB2503387F850
:1011300027307B88DBB23B843B8C1B099BB201339D
:101140009BB21B019AB23B8CD31A7B843A887B8C6E
:10115000934228BF13467B8439E03B8CDBB23B7360
:10116000B7F924307A68D1187A8C07F10C0301336F
:10117000184601F07EFC97F827305B00D8B27B8CD4
:1011800001331A4607F10C03194601F08BF9FFF7FA
:101190004AFF3A887B8CD31A3B80BA8C7B8C1344F1
:1011A0009BB2BB843A8C7B8C13443B843B88102BD2
:1011B00028BF10237B843B8C1B0A9BB2DAB297F8C2
:1011C0002730134487F827303B8CDBB23B843B88C5
:1011D000002BC2D1B7F9243018462837BD4680BD50
:1011E00080B500AF00220021022000F0A9FC0022FF
:1011F0000121022000F0A4FC00220221022000F0C4
:101200009FFC00220321022000F09AFC002204210E
:10121000022000F095FC00BF80BD80B582B000AF19
:101220000023FB710021022000F05AFE0346002B30
:1012300003D1FB7943F00103FB710121022000F08F
:101240004FFE0346002B03D1FB7943F00403FB71EF
:101250000221022000F044FE0346002B03D1FB795B
:1012600043F01003FB710321022000F039FE034616
:10127000002B03D1FB7943F00203FB710421022010
:1012800000F02EFE0346002B03D1FB7943F0080348
:10129000FB71FB7918460837BD4680BD80B500AFAD
:1012A00001220B21012000F04BFC01220B21012027
:1012B00000F066FD00BF80BD80B584B000AF03467E
:1012C0003960FB71FF23FB7300220B21012000F02A
:1012D00057FDFB792C2B07D9FB797C2B04D8FB79A4
:1012E0002D3B0B4AD35CFB733B68002B01D0FB7991
:1012F000FB7307F10F030121184601F0B3F9012236
:101300000B21012000F03CFD00BF1037BD4680BD21
:101310005800001080B400AF00BFBD4680BC7047CD
:1013200080B582B000AF00233B7180237B713B1DF1
:1013300002221946882001F0B5F8064B40F2CD3262
:101340001A60054B4FF480321A6000BF0837BD4663
:1013500080BD00BFA8000010AC00001080B582B0B6
:1013600000AF00237B6004233B703B4601221946FB
:10137000882001F097F83B4601221946882001F0A9
:1013800069F83B787B6005233B703B460122194698
:10139000882001F087F83B4601221946882001F099
:1013A00059F83B781B027A6813437B60064B1B6835
:1013B0007A6803FB02F2054B1B68B2FBF3F3184695
:1013C0000837BD4680BD00BFA8000010AC0000106B
:1013D00080B582B000AF0346FB71002207210220D6
:1013E00000F0CEFC00220221002000F0C9FCFB1D11
:1013F0000121184601F036F901220221002000F0F7
:10140000BFFC00BF0837BD4680BD80B582B000AFCD
:101410000346FB7101220721022000F0B1FC0022EB
:101420000221002000F0ACFCFB1D0121184601F058
:1014300019F901220221002000F0A2FC00BF0837A8
:10144000BD4680BD80B5A6B000AF03463960FB71D4
:101450000023C7F894300BE007F10802D7F8943066
:101460001344FA791A70D7F894300133C7F89430DE
:10147000D7F894303A689A42EED801220721022028
:1014800000F07EFC00220221002000F079FC07F130
:1014900008033968184601F0E5F80122022100200E
:1014A00000F06EFC00BF9837BD4680BD80B500AF30
:1014B0000220FFF78DFF1220FFF78AFF4020FFF781
:1014C00087FF2E20FFF784FF8120FFF781FFFF2099
:1014D000FFF77EFF8220FFF77BFF8020FFF778FF7A
:1014E000A120FFF775FFA620FFF772FFA820FFF7E6
:1014F0006FFF3F20FFF76CFFD320FFF769FF40200D
:10150000FFF766FFAD20FFF763FF8E20FFF760FF58
:10151000C820FFF75DFFD520FFF75AFFF020FFF747
:1015200057FFD820FFF754FF0520FFF751FFD920C0
:10153000FFF74EFFF120FFF74BFFDA20FFF748FFE0
:101540001220FFF745FFDB20FFF742FF3420FFF7B3
:101550003FFF9120FFF73CFF3F20FFF739FF3F207F
:10156000FFF736FF3F20FFF733FF3F20FFF730FF45
:10157000AF20FFF72DFFA420FFF72AFF00BF80BD9B
:1015800080B582B000AF00237B60012200210020E3
:1015900000F0D6FA01220A21012000F0D1FA01223E
:1015A0000721022000F0CCFA01220221002000F0E5
:1015B000C7FA00220A21012000F0E2FB01220221E9
:1015C000002000F0DDFBFFF771FF4FF440720021B7
:1015D0000B4801F050FA00237B6002E07B68013386
:1015E0007B607B684FF6FE729342F7DD01220A2191
:1015F000012000F0C5FB00BF0837BD4680BD00BF1D
:10160000A401001080B586B000AF0346FB710B4605
:10161000BB7113467B7100233B61FB79602B00F2A9
:101620009180BB79402B00F28F80BB79072B02D8C9
:10163000B023FB7525E0BB790F2B02D8B123FB75D6
:101640001FE0BB79172B02D8B223FB7519E0BB79D9
:101650001F2B02D8B323FB7513E0BB79272B02D8CD
:10166000B423FB750DE0BB792F2B02D8B523FB7596
:1016700007E0BB79372B02D8B623FB7501E0B7230F
:10168000FB75FB799BB21233FB81FB89DBB203F064
:101690000F037B73FB891B099BB2DBB243F0100382
:1016A0003B73BB79DB08DBB2FB81FB89DB00FB8191
:1016B000BB799AB2FB89D31AFB81FB89012202FA1A
:1016C00003F3FB72FB7D1846FFF782FE7B7B184617
:1016D000FFF77EFE3B7B1846FFF77AFEFB7DA3F10A
:1016E000B00213465B0013445B011A46FB791344B6
:1016F0003B617B79002B0CD0154A3B6913441A7867
:10170000FB7A1343D9B2124A3B6913440A461A7052
:1017100010E00F4A3B6913441B785AB297F90B301B
:10172000DB435BB213405BB2D9B2094A3B69134455
:101730000A461A70064A3B6913441B781846FFF79D
:1017400064FE02E000BF00E000BF1837BD4680BD68
:10175000A401001080B584B000AF0346FB710023E4
:10176000BB73FB79012B01D1FF23BB73B023FB7348
:1017700011E0FB7B1846FFF72BFE0020FFF728FE49
:101780001020FFF725FEBB7B84211846FFF75AFE89
:10179000FB7B0133FB73FB7BB72BEAD9BB7B4FF49D
:1017A00040721946034801F066F900BF1037BD4684
:1017B00080BD00BFA401001090B585B000AF044605
:1017C000084611461A462346FB710346BB710B4679
:1017D0007B7113463B7100233B730023FB73002393
:1017E000BB7300237B73FB79572B02D8BB79372B54
:1017F00001D9002343E07B791F2B03D997F90530EA
:10180000002B01DA20237B717B79203B7B71002345
:10181000FB7330E07A79FB7B1B49D2000A44134406
:101820001B783B730023BB7319E0BB7B174AD25C68
:101830003B7B1340DBB2002B03D197F820307B7346
:1018400001E03B797B737A7BB979FB791846FFF726
:10185000D9FEFB790133FB71BB7B0133BB73BB7BCF
:10186000052BE2D9BB790133BB71FB79063BFB71D8
:10187000FB7B0133FB73FB7B072BCBD90123184682
:101880001437BD4690BD00BFFC520000F45200006A
:1018900090B585B002AF3A601A460346FB710B461D
:1018A000BB7113467B713B681B78002B12D03B68E1
:1018B0005A1C3A601A787C79B979F8793B7E0093A2
:1018C0002346FFF779FF0346002B05D0FB7906334B
:1018D000FB71E8E700BF00E000BF00BF0C37BD466A
:1018E00090BD80B485B000AF03463960FB801346DD
:1018F0007B710023FB600023FB603CE0FB683A68DF
:1019000013441B785AB2FB88DBB203F00103DBB24D
:10191000797901FB03F3DBB259B2FB885B1003F06A
:101920000103787900FB03F39B005BB20B4359B2D0
:10193000FB889B1003F00103787900FB03F31B0184
:101940005BB20B4359B2FB88DB1003F001037879DB
:1019500000FB03F39B015BB20B435BB2134359B231
:10196000FB683A681344CAB21A70FB881B09FB80F3
:10197000FB680133FB60FB68032BBFDD00BF00BFCA
:101980001437BD4680BC704780B584B000AF0023DB
:101990007B60164B1B88FB81391DFB890122184691
:1019A000FFF79FFF124B1B88391D02221846FFF7D5
:1019B00098FF104B1B88391D03221846FFF791FF33
:1019C00016233B723B797B727B79BB72BB79FB72CE
:1019D000FB793B7307F1080305221946C02000F08C
:1019E00061FD00BF1037BD4680BD00BFA8040010D8
:1019F000A4040010A604001080B400AF00BFBD46D0
:101A000080BC704780B582B000AF03460A46FB80B9
:101A10001346BB80B7F90430DB431AB2164B1B8860
:101A20001BB213401BB29AB2134B1A80124B1A8886
:101A3000FB8813439AB2104B1A80B7F90430DB438A
:101A40001AB20E4B1B881BB213401BB29AB20B4B3F
:101A50001A80B7F90430DB431AB2094B1B881BB25A
:101A600013401BB29AB2064B1A80FFF78DFF00BFDE
:101A70000837BD4680BD00BFA8040010A4040010B4
:101A8000A604001080B483B000AF0346FB71FB795D
:101A900003F01F03012202FA03F1054A97F9073008
:101AA0005B0942F8231000BF0C37BD4680BC70476D
:101AB00000E100E080B500AF194BD3F88030184A40
:101AC00043F04003C2F880303820FFF7DBFF3720B7
:101AD000FFF7D8FF3620FFF7D5FF3520FFF7D2FFFD
:101AE0004FF0A04303F54053D3F8FC3F0D4A136079
:101AF0000D4B03F54053D3F8FC3F0C4A13600C4BDD
:101B000003F54053D3F8FC3F0A4A13600A4B03F530
:101B10004053D3F8FC3F094A136000BF80BD00BFAB
:101B200000800440AC04001000000150B00400101C
:101B300000000250B404001000000350B80400106C
:101B400080B485B000AFF860B9607A60FB68032BA1
:101B500000F2028101A252F823F000BF6D1B0000C9
:101B6000F31B00006D1C0000E31C00004FF0A043BD
:101B700003F500431B680121BA6801FA02F2134021
:101B8000002B13D17B68012B10D14FF0A04303F53C
:101B900000431B680121BA6801FA02F211464FF0B6
:101BA000A0420B4302F500421360D7E04FF0A04380
:101BB00003F500431B680121BA6801FA02F21340E1
:101BC000002B00F0CB807B68002B40F0C7804FF0EB
:101BD000A04303F500431B680121BA6801FA02F231
:101BE000D24311464FF0A0420B4002F50042136071
:101BF000B4E0604B03F500431B680121BA6801FAA9
:101C000002F21340002B11D17B68012B0ED1594BEE
:101C100003F500431B680121BA6801FA02F211467C
:101C2000544A0B4302F50042136099E0514B03F50F
:101C300000431B680121BA6801FA02F21340002B2D
:101C400000F08E807B68002B40F08A80494B03F5C2
:101C500000431B680121BA6801FA02F2D24311461F
:101C6000444A0B4002F50042136079E0424B03F511
:101C700000431B680121BA6801FA02F21340002BED
:101C800011D17B68012B0ED13B4B03F500431B6840
:101C90000121BA6801FA02F21146374A0B4302F5F4
:101CA000004213605EE0344B03F500431B680121E2
:101CB000BA6801FA02F21340002B53D07B68002B64
:101CC00050D12D4B03F500431B680121BA6801FA7E
:101CD00002F2D2431146284A0B4002F5004213603B
:101CE00040E0264B03F500431B680121BA6801FA66
:101CF00002F21340002B11D17B68012B0ED11F4B38
:101D000003F500431B680121BA6801FA02F211468B
:101D10001A4A0B4302F50042136025E0174B03F506
:101D200000431B680121BA6801FA02F21340002B3C
:101D30001AD07B68002B17D1104B03F500431B68AA
:101D40000121BA6801FA02F2D24311460B4A0B4054
:101D500002F50042136007E000BF06E000BF04E0A8
:101D600000BF02E000BF00E000BF00BF1437BD4667
:101D700080BC70470000015000000250000003507A
:101D800080B485B000AFF860B9607A60FB68032B5F
:101D900000F2918001A252F823F000BFAD1D0000B7
:101DA000F11D0000331E0000751E00007B68002B33
:101DB0000AD00122BB6802FA03F31A46414B1B68A2
:101DC0001343404A13600AE00122BB6802FA03F39E
:101DD000DB431A463B4B1B6813403A4A13604FF0F3
:101DE000A042384B1B6802F54052C2F8FC3F63E04A
:101DF0007B68002B0AD00122BB6802FA03F31A4663
:101E0000314B1B681343304A13600AE00122BB6860
:101E100002FA03F3DB431A462B4B1B6813402A4A92
:101E200013602A4A284B1B6802F54052C2F8FC3F57
:101E300042E07B68002B0AD00122BB6802FA03F360
:101E40001A46234B1B681343214A13600AE0012200
:101E5000BB6802FA03F3DB431A461D4B1B681340B1
:101E60001B4A13601B4A1A4B1B6802F54052C2F80A
:101E7000FC3F21E07B68002B0AD00122BB6802FAFC
:101E800003F31A46144B1B681343134A13600AE00A
:101E90000122BB6802FA03F3DB431A460E4B1B68B0
:101EA00013400D4A13600D4A0B4B1B6802F540525C
:101EB000C2F8FC3F00E000BF00BF1437BD4680BC45
:101EC000704700BFAC040010B004001000000150C7
:101ED000B404001000000250B804001000000350C9
:101EE00080B485B000AF786039600023FB737B68F5
:101EF000032B50D801A252F823F000BF0D1F0000A1
:101F0000311F0000531F0000751F00004FF0A04359
:101F100003F54053D3F8FC3F01213A6801FA02F27D
:101F20001340002B14BF01230023DBB2FB7333E00B
:101F30001C4B03F54053D3F8FC3F01213A6801FAEA
:101F400002F21340002B14BF01230023DBB2FB730A
:101F500022E0154B03F54053D3F8FC3F01213A68CA
:101F600001FA02F21340002B14BF01230023DBB25D
:101F7000FB7311E00D4B03F54053D3F8FC3F0121F7
:101F80003A6801FA02F21340002B14BF0123002328
:101F9000DBB2FB7300E000BFFB7B18461437BD4685
:101FA00080BC704700000150000002500000035048
:101FB00080B483B000AF0346FB71FB7903F01F03CD
:101FC000012202FA03F1054A97F907305B0942F84A
:101FD000231000BF0C37BD4680BC704700E100E015
:101FE00090B482B000AF4FF080435B68FB71FB7927
:101FF000302B00F39780082B3ADA5EE1403B182B38
:1020000000F25B8101A252F823F000BF072200001A
:10201000BB220000BB220000BB220000BB2200004C
:10202000BB220000BB220000BB220000AB2200004C
:10203000BB220000BB220000BB220000BB2200002C
:10204000BB220000BB220000BB2200002B220000AC
:10205000BB220000BB220000BB220000BB2200000C
:10206000BB220000BB220000BB220000792200003E
:10207000083B282B00F2218101A252F823F000BF77
:1020800033210000BB220000BB220000BB22000065
:10209000BB220000BB220000BB220000BB220000CC
:1020A00055210000BB220000BB220000BB22000023
:1020B000BB220000BB220000BB220000BB220000AC
:1020C00077210000BB220000BB220000BB220000E1
:1020D000BB220000BB220000BB220000BB2200008C
:1020E000AB220000BB220000BB220000BB2200008C
:1020F000BB220000BB220000BB220000BB2200006C
:10210000A9210000BB220000BB220000BB2200006E
:10211000BB220000BB220000BB220000BB2200004B
:10212000A9210000582B00F3C880402BBFF666AFF2
:10213000C3E0674B00221A60664B1B78DAB24FF09F
:1021400080439A604FF0804328229A61624B0122BB
:102150001A60B7E0614B00221A605E4B1B78DAB25E
:102160004FF080439A604FF0804328229A615A4B87
:1021700002221A60A6E0584B1B68012B0FD1584B66
:102180001A68534B1B68591C5148016013441B7853
:10219000DAB24FF080439A604F4B04221A604FF03E
:1021A000804308229A618DE0494B1A684D4B1B68A9
:1021B0009A4210D24A4B1A68454B1B68591C444836
:1021C000016013441B78DAB24FF080439A60424BAF
:1021D00004221A6012E0444B1B68002B07D04FF01A
:1021E000804320221A603C4B03221A6006E03A4BDF
:1021F00005221A604FF0804310221A604FF080438E
:1022000008229A615EE0384B1B68012B04D14FF025
:10221000804304229A6103E04FF0804304221A6055
:102220004FF0804308229A614CE04FF080439C6855
:102230002E4B1A68294B1B68591C2848016013440F
:10224000E2B21A70254B1A68274B1B689A4207D2D4
:10225000214B04221A604FF0804304221A6006E0EA
:102260001D4B05221A604FF0804304229A614FF003
:10227000804308229A6125E04FF080439C681B4B05
:102280001A68164B1B68591C144801601344E2B2CB
:102290001A70114B05221A604FF0804310221A6009
:1022A0004FF0804308229A610CE04FF080430822EF
:1022B0009A61094B05221A6004E04FF0804308221E
:1022C0009A6100BF00BF0837BD4690BC704700BF91
:1022D000E0040010E4040010BC040010DC04001052
:1022E000CC040010D8040010D4040010D004001056
:1022F00080B483B000AF00237B6000233B604FF0CD
:10230000804320221A600C4B1B68012B02D1012351
:102310003B600BE07B686FF07F42934202D3002367
:102320003B6003E07B6801337B60ECE73B68184669
:102330000C37BD4680BC7047BC04001080B400AFB1
:102340004FF0804310221A604FF0804308229A61B8
:1023500000BF4FF080431B6803F01003002BF8D13F
:1023600001231846BD4680BC7047FFFF80B582B090
:1023700000AF78603960234B5B68224A43F0020368
:102380005360204BD3F880301E4A43F02003C2F83C
:1023900080301D4B1B6B1C4A23F03F0313631A4B09
:1023A0001B6B194A43F001031363174B5B6B164A0F
:1023B00023F03F035363144B5B6B134A43F0010359
:1023C00053634FF080436C229A614FF080434FF487
:1023D000C0725A614FF080434FF4C0721A617B683B
:1023E000022B03D14FF080423B68D3602820FFF7D7
:1023F000DFFD4FF0804340221A6001231846083762
:10240000BD4680BD008004400040044080B500AF60
:102410000D4B00221A600D4B00221A600C4B00225B
:102420001A60FFF765FF0346012B03D0FFF786FF15
:10243000002307E0044B1B68052BFBD1FFF77EFF51
:1024400000BF0123184680BDBC040010DC0400104E
:10245000E004001080B584B000AF0346B9607A6034
:10246000FB73FB7B43F00103DAB20A4B1A700A4A92
:10247000BB681360094A7B681360094B01221A602C
:10248000FFF7C4FF054B1B68044A136000BF1037F9
:10249000BD4680BDE4040010D0040010D404001038
:1024A000D804001080B584B000AF0346B9607A60EC
:1024B000FB730B4AFB7B13700A4ABB6813600A4A22
:1024C0007B681360094B00221A60FFF79FFF064BE1
:1024D0001B68054A136000BF1037BD4680BD00BFB2
:1024E000E4040010CC040010D8040010D404001040
:1024F00080B483B000AF0346FB71FB7903F01F0388
:10250000012202FA03F1054A97F907305B0942F804
:10251000231000BF0C37BD4680BC704700E100E0CF
:1025200080B483B000AF164BDB697B607B6803F03F
:102530000103002B07D0134B1B680133114A1360B2
:102540000F4B01221A627B6803F00203002B07D0B5
:102550000D4B1B6801330C4A1360094B02221A62AF
:102560007B6803F00403002B05D0084B1B68013384
:10257000064A136000BF00BF0C37BD4680BC7047E1
:1025800000000440EC040010F0040010E804001007
:1025900080B582B000AF304B5B682F4A43F0010337
:1025A00053602D4BD3F880302B4A43F40063C2F8BC
:1025B0008030294B0222C3F89420284B1B6E274AF7
:1025C00023F007031366254B1B6E244A43F00103D7
:1025D0001366224B5B6E214A23F0070353661F4BA1
:1025E0005B6E1E4A43F0010353661C4B0122C3F885
:1025F000B0201A4B01221A67184BDB69174A23F0E7
:102600000703D361012202210020FFF799FA01227A
:1026100002210020FFF7B4FB114B40F207721A6051
:102620000F4B02221A610023FB7105E00C4B9B68E3
:10263000BB71FB790133FB71FB79072BF6D92D2098
:10264000FFF756FF064B02225A60054B03225A61E0
:1026500000BF0837BD4680BD0080044000400440F4
:102660000000044080B485B000AF7860396000237A
:10267000FB601AE000BF114BDB6803F01203022B72
:10268000F9D17B681A780D4B9A607B6801337B60C7
:1026900000BF0A4BDB6803F01403042BF9D1074B8E
:1026A0009B68FB72FB680133FB60FA683B689A42E7
:1026B000E0D300BF1437BD4680BC70470000044023
:1026C00080B483B000AF0346FB71FB7903F01F03B6
:1026D000012202FA03F1054A97F907305B0942F833
:1026E000231000BF0C37BD4680BC704700E100E0FE
:1026F00080B483B000AF03463960FB71FB79002BD7
:1027000025D12A4B02225A60284B0022DA60284B3E
:102710001A68284B9B6FB2FBF3F3274AA2FB0323F3
:102720009B0922493A6802FB03F38B611F4BFF228E
:102730001A601E4B04225A611C4B01225A6000BFD2
:102740001A4B5B6803F00103002BF9D128E0FB79F9
:10275000012B25D1194B02225A60184B0022DA6056
:10276000134B1A68134B9B6FB2FBF3F3124AA2FB95
:1027700003239B0911493A6802FB03F38B610F4B5A
:10278000FF221A600D4B04225A610C4B01225A6041
:1027900000BF0A4B5B6803F00103002BF9D100BFB7
:1027A00000BF0C37BD4680BC704700BF00400140F1
:1027B000B000001000800440D34D62100080014042
:1027C00080B483B000AF03463960FB71FB79002B06
:1027D00025D12A4B02225A60284B0022DA60284B6E
:1027E0001A68284B9B6FB2FBF3F3274AA2FB032323
:1027F0009B0C22493A6802FB03F38B611F4BFF22BB
:102800001A601E4B04225A611C4B01225A6000BF01
:102810001A4B5B6803F00103002BF9D128E0FB7928
:10282000012B25D1194B02225A60184B0022DA6085
:10283000134B1A68134B9B6FB2FBF3F3124AA2FBC4
:1028400003239B0C11493A6802FB03F38B610F4B86
:10285000FF221A600D4B04225A610C4B01225A6070
:1028600000BF0A4B5B6803F00103002BF9D100BFE6
:1028700000BF0C37BD4680BC704700BF0040014020
:10288000B00000100080044083DE1B430080014044
:1028900080B582B000AF03463960FB71FB79002B35
:1028A0004DD13B4BD3F88030394A43F40073C2F822
:1028B0008030384BD3F8A030364A23F00703C2F8F3
:1028C000A030344BD3F8A030324A43F00203C2F8B0
:1028D000A030304BD3F8A4302E4A23F00703C2F8BF
:1028E000A4302C4BD3F8A4302A4A43F00203C2F898
:1028F000A430284BD3F8A830264A23F00703C2F8A7
:10290000A830244BD3F8A830224A43F00203C2F87F
:10291000A830204B1B691F4A23F0070313611D4B8E
:102920001B691C4A43F0020313611B4A3B68936115
:10293000194B03225A612B20FFF7C2FE24E0FB79DA
:10294000012B21D1124BD3F88030114A43F480631C
:10295000C2F880300F4BD3F894300E4A23F00703AF
:10296000C2F894300B4BD3F894300A4A43F0020378
:10297000C2F89430094A3B689361084B03225A61BC
:102980002C20FFF79DFE00BF00BF0837BD4680BD6D
:1029900000800440004004400040014000800140AD
:1029A0002E4BD3F8382222F02002C3F8382200221E
:1029B0001A62C82300BF013BFCD1284B01221A64D4
:1029C0005A64002159645A641A46536C13F0010F7B
:1029D000FBD0224B25229A60D3F8382222F08002C5
:1029E000C3F838221A46D36813F0010FFBD01B4BF3
:1029F00003221A6701225A67002159675A671A464B
:102A0000536F13F0010FFBD0144BD3F8382222F48C
:102A10008062C3F83822D3F8382222F48072C3F8D7
:102A2000382201229A64DA640021D964DA641A46F1
:102A3000D36C13F0010FFBD0084B03221A611A4626
:102A4000536913F0010FFBD0044B0022C3F8C020E0
:102A500001229A67024AC3F8802070470080044030
:102A60005F00010008B500F099FDBDE80840FEF7E1
:102A7000FBB902F01FBB02F037BB10B5425C431834
:102A8000342A01DC002010BD352A06D1194611F880
:102A9000012F302AFBD0002AF4D01A46302412F835
:102AA000011D392901D11470F9E701311170027843
:102AB000302AE7D01A1A002A01DA0120E3E713F8D6
:102AC00001299A70F6E730B50A258C1F034690FB62
:102AD000F5F0C0EB4012C0EB8202303303EB42034F
:102AE00001F80139A142F1D130BDFFFF0EB430B57C
:102AF00094B017AB53F8045B04463C22002105A8B0
:102B00000493FFF7B8FF0A2308936FF0004307937D
:102B1000104B4FF0FF320293049B05A8CDE9005300
:102B20006FF00043059400F075FD079B0446013BE0
:102B3000002B079308DB0022059B1A70204614B077
:102B4000BDE8304003B0704705A9002001F0D6FB76
:102B5000F4E700BF592B00002DE9F04F9DB014465B
:102B60000693D1E90023CDE90423059B054607938D
:102B700047F6F073079ADDF89CB033EA124320D190
:102B80000023E370C2F31303049A134340F0B784A5
:102B9000079B002BC0F2B984069B9D070FD4A64A61
:102BA00013F0040FA54B18BF134669226E2066214F
:102BB0002270269A6070A1700325136047E3A04B32
:102BC000F3E720F02003412B00F0E382DDE904016C
:102BD0000022002302F0E7F9002840D0DDE9046379
:102BE00003F1004701230C930022002330463946AD
:102BF00002F0BAF9002840F0C68230460FAA3946E2
:102C000001F079FC40F22D16CDE910014FF47A71F4
:102C10000F9A00205643A6F5AB531C3B93FBF1F9EA
:102C20008849A9EB020201F093FC41F294139E4201
:102C3000CDE91A0117DC7AA3D3E90023CDE91623E5
:102C4000C9F10006FEB1F00713D4DDE91601DDE994
:102C5000162301F0AFFE7610CDE91601F3E70C90D4
:102C6000DDE90467C0E70022774B4E46CDE9162325
:102C7000E8E7DDE91601DDE91A2301F09BFE012EEC
:102C8000CDE91A01E1D1DDE91001DDE91A2301F0F6
:102C90000FFF0026CDE912016C4FDDE9120162A39E
:102CA000D3E9002302F07FF9002840F0938000264A
:102CB000664FDDE912015EA3D3E9002302F0CDF9EE
:102CC000002840F09A80DDE9120102F001F9824605
:102CD00089EAE973A3EBE9730D930F9A5046A9EBC8
:102CE000020602F039F9324601F032FC00220023DC
:102CF000B9F1000FCDE91201CDE9142380F2A880CB
:102D000047A1D1E90001CDE91601CDE91823DDE99C
:102D10001667DDE916010026DDE91823CDE9082351
:102D200032463B4601F05CFFDDE9082302F032F851
:102D3000CDE91801CDE91667DDE916010022424B05
:102D400001F038FE02460B4600203E4901F048FFE4
:102D500000223D4B01F0ACFECDE91801DDF83480D6
:102D600018F0010F40F08C80DDE91623DDE9180131
:102D7000DDE91867CDE908011046194602F00AF8A6
:102D8000DDE9082302F006F832463B4601F012FE68
:102D9000CDE91801DDE91601DDE9162301F00AFE8F
:102DA000CDE91601DDE91667DDE916010026DDE94A
:102DB0001823CDE9082332463B4601F011FFDDE937
:102DC000082301F0E7FF4FEA6808CDE91801CDE9D3
:102DD0001667C5E7DDE9120132463B4601F0EAFD20
:102DE000CDE91201DDE91A0132463B4601F060FEF1
:102DF00009F1FF39CDE91A014FE7DDE91201324649
:102E00003B4601F055FECDE91201DDE91A013246DB
:102E10003B4601F0CFFD09F10109CDE91A0148E770
:102E20009A9999999999C93F00000000006AF84061
:102E30000000000080842E41FE5500007C560000FA
:102E4000FC5500000000F03F00001440000024404A
:102E50004FF00002B44BCDE916234FF000024FF0C3
:102E60000003CDE918237FF479AFDDE91201DDE934
:102E7000102302F0C5F8002848D10AF1FF3A2CE7E8
:102E8000DDE91223CDE90823DDE91823DDE9160188
:102E9000CDE90A23DDE91823DDE9146701F07AFFA3
:102EA00032463B4601F086FDDDE90A2306460F4621
:102EB000DDE9080101F07EFD02460B463046394649
:102EC00001F068FFCDE91401DDE91601DDE9122307
:102ED00001F070FDCDE91201DDE91267DDE91201B3
:102EE0000026DDE91423CDE9082332463B4601F0F4
:102EF00077FEDDE9082301F04DFFB8F1010FCDE9C0
:102F00001401CDE912677FF42FAFAEE7DDE912239C
:102F1000DDE9100101F064FECDE91001DDE91423C3
:102F2000DDE9100101F05CFECDE91001DDE91A23B5
:102F3000DDE9100101F0BCFD79A3D3E90023CDE95F
:102F40001001DDE9100101F035FDCDE91001DDE9E9
:102F5000100101F0BDFFDDE91067804601F0FCFFC4
:102F600002460B463046394601F03AFE6CA3D3E9DF
:102F7000002301F01FFDCDE91001DDE9100101F092
:102F8000A7FF0646002EC0F2B680684B9E4200F3B3
:102F9000B980B8F1000FC0F2BC80644B984500F3D3
:102FA000D180634A924500F3D480624B0A21B8FB7A
:102FB000F3F2B6FBF3F3604801FB0A2A00FB02823E
:102FC00001FB023800FB036301FB03F609F1FF3943
:102FD00021463027504601F8067BFFF774FD404636
:102FE00004F10C01FFF76FFD304604F11201FFF709
:102FF0006AFD002323750C9B09F10506E77443EA7B
:103000008606002B40F0C980069B990700F1C3801B
:103010004A4A13F0040F4A4B08BF134636F0010624
:10302000269A48BF0336672DDBF8000013604FEA8D
:10303000A6060ADC602D00F3B280452D00F0E48185
:10304000472D03D0412D00F0BF806725069B002847
:1030500043F400630693DCBF0123CBF80030DBF8B8
:10306000001020461129A8BF11210131FFF705FDED
:10307000DBF800300644B34240F3C281321DC0F297
:10308000BF81721C9B1ACBF80030069A002EDBF829
:10309000003002F4006780F24581C6F100085A1C36
:1030A000424580F2F780302323702E23022563707F
:1030B000DBF80030299A1360299B1B68002B02DD86
:1030C0003E2363550135069B03F00803002F00F0F3
:1030D0000081002B40F0BB806219154612F8013DBB
:1030E000302BFAD03E2BF8D02E2BA5EB040540F068
:1030F000AE80013DABE006F5742606F5107608F1CA
:10310000FF383FE7A6F57426A6F5107608F101080A
:103110003CE708F5742808F510780AF1FF3A38E71B
:103120000000000080842E41000014403F420F0048
:103130009F860100A08601006079FEFF7C5600009A
:10314000FE550000A8F57428A8F510780AF1010AC8
:1031500024E79A457FF73CAF0A226FF009079AFBF4
:10316000F2F107FB01A39D488A4600FB038393FB12
:10317000F2F807FB083300FB0363053393FBF2F619
:1031800009F1010924E700266FF00409B046B246B0
:103190001EE7002638E7924B40E7924B3EE7A5F149
:1031A0006103052B3FF651AF01A252F823F000BF97
:1031B000C93100004B3000004B3000004B300000A4
:1031C000093400008B300000079B049FC3F31306F3
:1031D000C3F30A53A3B957EA060208D100284ED018
:1031E0008149824A612D08BF1146302211E0002832
:1031F00031D07E4B7C49612D08BF19467C4BF4E7EA
:10320000A3F2FF3368B17849784A612D08BF1146AF
:1032100031220293CDE9007603462046FFF766FC93
:103220000BE0069A12072FD4724A7349612D08BF2A
:10323000114631222046FFF759FC704A0599694B27
:10324000054613EA210338BF1346269A1360284621
:103250001DB0BDE8F08F069B180707D4644B664A83
:103260006449612D18BF11463022E3E760485E4B88
:103270005E49612D18BF194603460020B5E7069B3D
:1032800013F00803F3D1EAE75849574A612D18BFF4
:103290001146BDE733449D1C122DC1BF299A113B35
:1032A00013251360D7B929462046FFF7E6FBA8B1DE
:1032B0007FEA060805F1010510D1637823702E23FB
:1032C0006370299B1B68002B3FF7FAAE069B03F047
:1032D0000803DBF800201343B9D10AE7B8F1010F66
:1032E00004EB05030FD11A1B002A05DC30232370E1
:1032F0002E2301356370DFE613F801299A70F2E797
:1033000013F80129DA701A1B002AF9DC3023237024
:103310002E2363703C23289AA37008F1FF330235F3
:103320001360C9E606EB030808F10205122D40DD23
:1033300027B913212046FFF7A0FBD0B91323132B85
:103340000CBF12221322B24216DD621EA119907820
:1033500002F8010F9142FAD12E224A70DBF80020C8
:1033600029993244113A0A60B2B33E225D1CE254FC
:10337000A9E614230136E2E7621CE11812F8010BFA
:10338000914202F8020CF9D13C22F61A01F8012C04
:10339000289A023616602E22E254DBF800205D1CCB
:1033A000002A3FF490AE29990A603E2262559D1C86
:1033B00089E63FB929462046FFF75FFB10B1013689
:1033C00008F10305631E26449A7803F8012F9E42F4
:1033D000FAD12E23737076E61D4674E640420F0044
:1033E000FC55000000560000215600001256000057
:1033F00001FCFFFF025600000A5600007C56000048
:10340000013BCBF80030023DDBF80030112B05DD2D
:10341000299A113B13601123CBF80030069BDBF88F
:10342000007013F4006807F1020704D13946204602
:10343000FFF723FB064463782370069BDBF800202C
:1034400023F4FE6323F007031B051B0D13431CBF6E
:103450002E236370299B08BF01271B68002BC2BF66
:103460003E23E3550137B8F1000F0FD0069B190733
:103470000CD4E219174612F8013D302BFAD03E2B3E
:10348000F8D03F1B2E2B08BF07F1FF37002EB6BF29
:103490002D222B227642E019EDB2791CB6F57A7F07
:1034A000057007F1020362540ADB4FF47A72B6FB2F
:1034B000F2F202F13001E154174B03FB0266FB1CF0
:1034C000632E0ADD642296FBF2F202F13001E15430
:1034D0006FF0630101FB026601330A2296FBF2F2F0
:1034E000D2B202F13001E154C2EB42113036C2EBEC
:1034F00081029D1C06EB420623445E70A7E66E2205
:1035000061201146054BFFF753BB69226E206621EF
:10351000034BFFF74DBB00BF18FCFFFF7C560000BC
:10352000005600000CB430B50C46054697B018B9EB
:1035300000292DD1012405AD1BAB3C22002107A899
:103540000693FFF798FA0A230A936FF00043079552
:1035500000250993104B621E0293069B07A8019356
:103560001A9B00932B4600F055F8099A0446013A3D
:10357000AA42099207DB079B1D70204617B0BDE8E1
:10358000304002B07047284607A900F0B7FEF4E7C4
:103590004FF0FF34F1E700BF592B000010B5174A78
:1035A0001749002000F04AFF4FF480734FF4806207
:1035B0000021124800F0E8FD124A1349012000F0F2
:1035C0003DFF4FF480734FF4806200210D4800F0FE
:1035D000DBFD0E4B1B68022B0EDD0D4A0A49022053
:1035E00000F02CFFBDE810404FF480734FF4806270
:1035F0000021074800F0C8BD10BD00BF0005001045
:10360000305600003C050010325600008056000085
:10361000780500102DE9F04F06464FF000089DB0E8
:10362000CDE90823279CDDF898A01AF8010B18B9FA
:1036300040461DB0BDE8F08F252819D0089A4FEA02
:10364000E8739045099A934104DB08F10108CDF82D
:1036500098A0E8E7B368013B002BB36004DB336854
:103660005A1C32601870F0E7314600F047FEECE774
:10367000002516E02D2F10D0302F4AD04FF0000932
:103680000A22A7F13003D9B2092925D802FB09394A
:10369000049B13F8017B0493F3E745F00105DDF883
:1036A00010A0534613F8017B2B2F049328D0E1D8A8
:1036B000202F28D0232F29D02A2FDFD1049B54F884
:1036C000049B1F78B9F1000F0AF10203BCBFC9F1D6
:1036D000000985F0010504932E2F28D1049B1F7843
:1036E0002A2F19D04FF0000B0A210133A7F1300225
:1036F000D0B209281ED801FB0B2B13F8017BF5E78C
:1037000045F00205CBE745F00405C8E745F008059C
:10371000C5E745F40075C2E754F804BB049B049A5E
:10372000BBF1000F577803F1020303DA04934FF063
:10373000000B02E045F0100504936C2F0ED1049BA2
:103740001F786C2F15BF049B5F780133023307BFCE
:1037500045F060050493049345F020054C2F3FD0BD
:10376000712F3DD00FDC682F41D06A2F6DD0572FBD
:103770000FDC412F00F0AC826DDC002F47D1049BA1
:10378000013B0493BAE0742F61D07A2F5FD0782F79
:103790003DDCA7F15803202B39D8DFE813F09D0159
:1037A0003800380038003800380038003800380059
:1037B0009902380073006B026000600060003800FE
:1037C0006B023800380038003800EB001E02E501BB
:1037D00038003800050138003D0238003800C101CA
:1037E000049B45F0600513F8017B04930DE0049BF6
:1037F0001F78682F04D15F7845F480750233F4E7B1
:10380000049B45F0800501330493782FAFDD15F05C
:103810000103059309F1FF3A4FEAE87335D008999F
:1038200008F101028845099990468B415ADB4546CB
:1038300057464FF0200B4FEAE879013F40F1818075
:10384000BAF1000FA8BFD04458E045F04005049BF2
:1038500013F8017BC9E727F00203452BD7D10734C2
:1038600024F00704F4E80223CDE91223002315F025
:10387000100F08BF4FF0060B1A461946184645F4BC
:10388000806576E154F8047BC1E715F4007F0CBF36
:103890004FF0200B4FF0300B4546BAF1010A30D5FE
:1038A000B9F1000FD8BF00230899C8BF09F1FF3351
:1038B00013EB08034FEAE87242F10002B9F1010F7D
:1038C000ACBFC84408F101088B42099B9A4115DA44
:1038D000B9F1000FC9F1010AD8BF4FF0000AA9F1F0
:1038E0000209CA44B368013B002BB36024DB336890
:1038F0005A1C32601F70059B002B98D1DDF810A078
:10390000A5E6089A9542099A73EB020109DAB168B3
:1039100001390029B16008DB3168481C306081F84A
:1039200000B0013543F10003B7E73146584606932E
:1039300000F0E4FC069BF4E73146384600F0DEFC7C
:10394000D9E7089B9D42099B79EB030309DAB36829
:10395000013B002BB36008DB33685A1C326083F8EC
:1039600000B0013549F1000967E73146202000F039
:10397000C5FCF6E76F06226804F1040305D54FEA9B
:10398000E871C2E900811C46B8E7AC0602D5C2F86E
:103990000080F8E7E80502D582F80080F3E7290601
:1039A000F5D5A2F80080EEE7AB4B54F804ABBAF1C2
:1039B000000F08BF9A46504600F059FCEB06074638
:1039C00002D55845A8BF5F4615F00103A9EB0709CA
:1039D000059312D115F4007F0CBF202230224546FA
:1039E000CB464FEAE873BBF1010B21D529EAE97315
:1039F00009F1FF399844A9EB030945464FF0000B44
:103A00004FEAE873BB452FDB059B002FA8BFB844E6
:103A1000002B3FF473AF45464F464FF0200B4FEA63
:103A2000E87A013F3FD5B9F1000FA8BFC84465E768
:103A300008998D42099973EB010108DAB1680139DF
:103A40000029B16007DB3168481C30600A7001351D
:103A500043F10003C7E7104631460793069200F092
:103A60004DFCDDE90623F2E7089A9542099A73EBCB
:103A700002020ADAB268013A002AB2600BDB32684D
:103A8000511C31601AF80B10117001350BF1010B4C
:103A900043F10003B6E731461AF80B00069300F035
:103AA0002DFC069BF1E7089B9D42099B7AEB0303E3
:103AB00009DAB368013B002BB36008DB33685A1C9A
:103AC000326083F800B001354AF1000AA9E73146B7
:103AD000202000F013FCF6E715F040021DBFE21DA8
:103AE00022F00702144654F8043B1CBF54F8083B6C
:103AF000526815F080010DD000229BB2574915F095
:103B0000080F574808BF0846E90601D525F4007597
:103B100054492EE0E80544BF0A4603F0FF03EDE7F1
:103B200015F040021DBFE21D22F00702144654F8B2
:103B3000043B1CBF54F8083B526815F080010DD0BF
:103B400000229BB2454915F0080F474808BF0846B8
:103B5000E90601D525F4007544490AE0E80544BFAB
:103B60000A4603F0FF03EDE7002254F8043B3F4907
:103B70003D48CDE90EB04FF0FF30DDF820C0CDE973
:103B80001000BCEB080CCDF818C0DDF824C04FF0D5
:103B900000006CEBE87CCDF81CC00DF1500CE64643
:103BA0004FF0550A013020280EF801ABFAD115F478
:103BB000826F04BF01200E906E2F00F39080472F7C
:103BC00000F39E805123A7F14102D34013F001037B
:103BD00040F097814FF0000BCEE015F040021DBF82
:103BE000E21D22F00702144654F8043B1CBF54F8AF
:103BF000083B526815F0800108D000229BB21C4897
:103C000015F0080F154908BF08464BE0E80544BF0A
:103C10000A4603F0FF03F2E715F040021DBFE21D64
:103C200022F00702144654F8043B1CBF54F8083B2A
:103C3000526815F0800109D000229BB215F01001E6
:103C400002D0002125F40075044892E7E80544BF3E
:103C50000A4603F0FF03F1E7345600007C560000EB
:103C60003B560000435600003E56000054560000EC
:103C700041560000680643BFE21D22F007021446C9
:103C800054F8043B46BF54F8083B5268DA1729063B
:103C900010D543F3C0321BB2002A11DA5B42B94897
:103CA00062EB420215F010013FF463AF002125F4EE
:103CB00000755EE7E80544BF43F3C0125BB2EBE773
:103CC000A90703D4B04815F0040F9BE7AF48E9E714
:103CD000EB065CBF4FF00D0B45F01005BFE56F3FE5
:103CE0004FF0000B092F47D8DFE817F0BB00430067
:103CF00046004600460046000801460046004300D4
:103D0000A7F1580011283FF665AF0FF2080E5EF8D4
:103D100020F000BF473E0000D53B0000D53B00002F
:103D2000D53B0000D53B0000D53B0000D53B000053
:103D3000D53B0000D53B0000033F0000D53B000011
:103D4000D53B0000F93E0000033F0000033F0000A8
:103D5000033F0000D53B0000F93E000003F00F00D8
:103D6000085C1B0943EA02730BF1010B0CF8010B11
:103D7000120953EA0200F1D115F480630B9300F0AD
:103D8000D08000230E93109B002BC4BF03F1FF33A0
:103D90000E93119B0E9A002B02DD013B13440E93F0
:103DA0000F980E9F00F063FA5F44A9EB07073B1AD8
:103DB00040F2012705932F4005F001030C9300F01A
:103DC000DB800027B9464FEAE77A0F9B5A1C0F9217
:103DD0001B780A93002B40F0DB800C9BB3B915F4E1
:103DE000007F0CBF202330233D46DDF814900D9357
:103DF0004FEAE77AB9F1010940F1E580059B059AA0
:103E000023EAE373013A1F44D31A05930B9B002B5B
:103E100000F0F2804FF0300A0A9B9B4500F30481CA
:103E20000C9B73B13D464FF0200BDDF814904FEA28
:103E3000E77AB9F1010940F18E81059B002BA8BFFB
:103E4000FF18B8445AE54FF0000B92E703F0070162
:103E50003031DB0843EA42730BF1010B0CF8011B14
:103E6000D20853EA0201F1D186E758089F0840EAD8
:103E7000C27047EA8277C7194FEA920141EB5201BB
:103E8000380940EA01703F1841EB1111380A40EA45
:103E900001603F1841EB1121380C40EA014038180D
:103EA00041EB1141401841F10001C0089F1D40EA5B
:103EB000417042F1000A0A97A0FB0E72C9080EFB7E
:103EC000012205920A9A3033D71B059A4FEA171739
:103ED0006AEB020247EA02773F1807EB8700A3EB81
:103EE00040030CF8013B3B460BF1010B41EB121276
:103EF00053EA0201B9D13FE74FF0000B4FF00A0E31
:103F0000F6E711AB039310AB02930EAB01930FAB2B
:103F100038460093289F2B4614AA12A9B847834617
:103F20002AE70E9B0B9AB3EB0B0348BF134636E709
:103F3000069B9F42079B79EB03030ADAB368013BB8
:103F4000002BB36013DB33685A1C32604FF0200241
:103F50001A70013749F10009AAEB0703002BE7DAD1
:103F6000059B23EAE377AAEB070305932AE731468B
:103F7000202000F0C3F9ECE7059BB94603F1FF3AB6
:103F8000EAE700BF00560000FE550000FC550000A7
:103F9000069B01379945079B7AEB030309DAB3685F
:103FA000013B002BB36009DB33685A1C32600A9A6C
:103FB0001A7019F101094AF1000A06E731460A9818
:103FC00000F09CF9F5E7069B9D42079B7AEB030303
:103FD00009DAB368013B002BB36008DB33685A1C75
:103FE00032600D9A1A7001354AF1000A02E7314633
:103FF0000D9800F083F9F6E73D464FF0300A4FEA9E
:10400000E7790E9B013B002B0E936FDA3D465B4632
:104010004FEAE779002B03F1FF3A00F38180BBF10F
:10402000000FA8BF5F44FBE60A9B14AAD05CFD17F3
:104030003C281DD03E2845D1B946119B013B002BA1
:1040400011931BDB069B01379945079B75EB030317
:1040500009DAB368013B002BB3602EDB33685A1CCE
:10406000326083F800A019F1010945F10005E4E789
:10407000B946109B013B002B109303DA0A9B0133D6
:104080000A93C9E6069B01379945079B75EB030325
:1040900009DAB368013B002BB36009DB33685A1CB3
:1040A000326083F800A019F1010945F10005E0E74D
:1040B0003146302000F022F9F5E73146302000F09B
:1040C0001DF9D0E7069B9F42079B9D4108DAB36824
:1040D000013B002BB36005DB33685A1C326018705B
:1040E0000137CBE7314600F009F9F9E7069B0137C4
:1040F0009D42079B79EB030309DAB368013B002B70
:10410000B36008DB33685A1C326083F800A00135C5
:1041100049F1000975E73146302000F0EFF8F6E785
:10412000069B9D42079B79EB03030BDAB36814AA45
:10413000013B002B12F80A00B36008DB33685A1CFD
:10414000326018700135534649F1000962E7314683
:1041500000F0D4F8F6E7069B9D42079B7AEB030339
:1041600009DAB368013B002BB36008DB33685A1CE3
:10417000326083F800B001354AF1000A59E6314651
:10418000202000F0BBF8F6E770B5C468A50708D09A
:10419000B2F5007F11D0B2F5806F04D0B2F5807F08
:1041A0000BD0012008E0012300F124011443016138
:1041B0000160C361C460002070BD6FF07F455E1E6A
:1041C000AE42F3D3EDE7FFFF70B50E490E4C0B681E
:1041D00022680E4D55F8230055F82260013A30440C
:1041E00020F0004045F823002260013B01320B60C3
:1041F00002D13623236070BD013304BF36230B6028
:10420000F9E700BFB4000010B8000010BC000010B7
:1042100017220A4B30B51A603622094B094C1A6036
:104220000023094A0949013300EB1045372B04FBF1
:10423000001042F8045BF6D130BD00BFB80000109A
:10424000B4000010CD0D0100BC000010E119D666CD
:10425000024610B5147813460132002CFAD1013B06
:1042600011F8012B03F8012F002AF9D110BD0346E4
:1042700010B59A071C4615D1234654F8042BA2F119
:10428000013121EA020111F0803FF5D0D1B299B19C
:1042900012F47F4F0ED012F47F0F14BF2346033366
:1042A000013003E01A4612F8011B09B9181A10BDB3
:1042B0001346DEE70233F3E70133F1E7C36810B5D5
:1042C00023F020038269C360836A04469A420ED0B9
:1042D00000F0E8F8E36823F4405323F0100343F0C0
:1042E0001003E360A36AA3612369E3622360E368C8
:1042F00023F4804323F04003E36010BDCB6870B526
:1043000023F400220C46CA609906054602D52046D1
:10431000FFF7D4FFD4E902365A1C10DAB0050ED4E8
:10432000C3F1FF2303F57F03FE33A360236846F444
:1043300090365A1CE66022601D70E8B270BD41F2F2
:104340008A023240022A07D0002346F08006A3608A
:10435000E6604FF0FF30F1E74AF210033340B3F567
:10436000004F0AD10021204600F032FAE368990696
:1043700002D52046FFF7A2FFE66846F4903316F414
:10438000706FE3600ED1606900F0DAFE00B3720571
:104390001ED504F12403236123600123E36146F465
:1043A0009233E36013F4106F2268266926D0E36A23
:1043B0009A422CBFC6EB0201C6EB0301B9B9731CCC
:1043C000E3622360E3695A1EA26023633570B4E799
:1043D0004FF4807000F0A2F94FF48073E268E3615B
:1043E00046F494331A4320612060E260DAE7224603
:1043F000304600F0D1F80028E1D0AAE7511CEDB218
:1044000021601570E26A206890422CBFC6EB000163
:10441000C6EB0201E2695B05226303D40A2D01D0D9
:104420008A4209DC002322463046E6622660A36009
:1044300000F0B2F800288CD128467FE770B50D4611
:1044400006461046144600F079F92B78722B17D0E7
:10445000772B18D0612B23D1082348F2020215F8DC
:10446000011F2B2912D0622915D01B07E26066615B
:1044700004D502220021204600F0AAF9204670BD92
:1044800000230122EBE704230222E8E742F00302C3
:1044900043F00203E3E742F0040243F00103DEE7E6
:1044A0000024EBE738B50446C36805690168C26AB1
:1044B00023F40020E06003F08200022802D04FF0D5
:1044C000FF3038BDDB030CD5914238BF11468D4219
:1044D00009D10023A360E368E56223F480332560FB
:1044E000E3600020EDE722462846491B00F054F81F
:1044F0000028EED0E3E770B50023164600220446FC
:104500000D4600F031FD20B1002300200021336072
:1045100070BDC5F30A5320462946A3F2FE328BB97B
:10452000C5F3130CE30F43EA4C03BCF5002FC3F3B0
:1045300013034FEA440402D29C46013AF2E72046B4
:1045400063F3130140F2FE33326063F31E51DFE781
:1045500070B500231646002204460D4600F004FD07
:1045600010B10020002170BDC5F30A539A1940F222
:10457000FE739A422046294605DD2222044B002084
:1045800004491A60EFE7002AEBDD62F31E51EAE707
:10459000F40400100000F07F2DE9F041D56880465A
:1045A000EB020E461446576905D5384600F0C2FDA9
:1045B00045F01005A061124B2B408BB13846A16924
:1045C00000F0CAFD002806DAE3684FF0FF3043F040
:1045D0008003E36011E025F4003525F01005E56067
:1045E00032464146384600F0C3FD20F00043F61A3B
:1045F000A3693344A3610028E6D1BDE8F08100BF80
:1046000010000200F8B5384F3C68002865D1002042
:10461000F8BD2368B3F1805F2ED1D4E9013555B1DF
:104620002968B1F1805F1ED1696803331944AB6812
:104630006160A360F1E7B34230DA06F10A01994202
:1046400033D220464FF00051666040F80C1B22F038
:1046500003014218A2604FF080549B1B033B44505F
:10466000C2E90135D4E7B34232DBF11C8B4229DDCC
:1046700006F10A018B42E4D82546A468002CC8D173
:104680000C3000F04DF9431CC1D04FF00053846052
:10469000C0E900362DBB38600C30B9E7F11C9942F7
:1046A00010DA06F10A018B42CBD8A0EB830000F0B0
:1046B00037F90130ABD04FF0005304F10C00C4E9DE
:1046C0000036A5E720464FF0005340F80C3B9FE72B
:1046D00006F10A019942CFD2B3E7C21C0025960821
:1046E000CCE7A860D8E700BFFC040010A8B14FF0E9
:1046F000805340F80C3C50F8042C72B11368B3F1AD
:10470000805F0AD150F8083C516803330B4440F8ED
:10471000083C936840F8043CEDE7704710B5FFF79C
:1047200071FF044628B91722034900F021FD00F06B
:10473000F5FC204610BD00BF65560000F0B5D0E97D
:104740000467C4680546A10789B020D0220716D4A3
:1047500000F020F8384600F0E7FC230502D530468B
:10476000FFF7C4FFA40DA40514F1A54F07D1202223
:104770006846296A00F0F6FC684600F0C7F83C225B
:1047800000212846FEF777F9002009B0F0BD4FF070
:10479000FF30FAE7F8B5044638B905460A4B0B4E28
:1047A0001F68A74205DC2846F8BDBDE8F84000F0C8
:1047B000D5B8304600F0D2F8002818BF4FF0FF35CA
:1047C00001343C36EDE700BF8056000000050010C4
:1047D0002DE9F843C6683B4B044633400D469046EE
:1047E000D0F814906BB1484600F0AAFC074640B9D7
:1047F000B8F1010F09D0B8F1020F31D0B8F1000FB4
:1048000007D002273846BDE8F883204600F05CF860
:104810000544002DF5DBB30404D52368E26A9A420F
:1048200038BFE362A069A8420EDC2368E26A9342C3
:1048300038BF134622691918891AA94204DB216B73
:1048400000EB010CAC452CDC0023C4E9013346F03D
:104850002006A56226F4032626F04006E660D1E78E
:10486000484600F067FC0028E26804DA42F0800263
:104870000127E260C6E72168A369D4F82CC061452E
:104880002CBF5B18634421699206A3EB010303D597
:10489000A26A9342B8BF13468342ACBFED182D18ED
:1048A000B7E72D1AB00744BF691AA160F10744BFEA
:1048B0009B1AEB1A2A4448BF6360226026F0200648
:1048C000C8E700BF03001000C3689A0705D1212282
:1048D0000D4B4FF0FF301A60704703F020021B03AE
:1048E00009D512B1806A013870470368826900698E
:1048F0001344181AF7E70AB1806A7047036882699F
:1049000000691344181A7047F404001010B50446E7
:10491000FFF7ADFC01462046BDE8104000F016BC94
:1049200070B50B4D2B680BB90A4B2B60C41C2E685D
:1049300024F003043444204600F030F810B92C6011
:10494000304670BD0C22044B4FF0FF361A60F7E77B
:10495000F8040010E0060010F4040010C36870B5FD
:1049600013F00306044611D09B0611D5856AFFF7A4
:10497000A5FCE368204623F44053E360FFF792FD73
:104980000022064629462046FFF722FF304670BD2A
:10499000836905681D440369ED1AEAE7044B23B1F6
:1049A000984234BF0020012070471846704700BF6E
:1049B000000000002DE9F043C1F30A5C81EA030422
:1049C0000E461F4640F2FF7E04F00044BCF1000F8B
:1049D00006D0F44504D0C3F30A550DB175450DD189
:1049E000760016F5001F52D305D17F00A7F50017FA
:1049F00017F5800F53D900202C493AE0C1F3130377
:104A0000510D41EAC72700210E4643F48013D2021C
:104A10006544A3FB02EC47F00047E3FB07C6A2FB9B
:104A20000032E7FB002112EB0E0241F1000111EB15
:104A30000C0146F10000B0F5801F42EA93031AD240
:104A4000491841EAD371A5F5806540415B00DA0F52
:104A5000521840F10000B3F1004F40F2FD7308BF5F
:104A600022F001029D4209D844EA0003104603EBFC
:104A70000551BDE8F083A5F2FF35E8E7002D03DB23
:104A800044F0FF4444F4E00400202146F1E77F00B5
:104A900017F5001FF8D3AED1B6F5001FABD344F025
:104AA000FF41002041F4E001E3E700BF0000F87F90
:104AB000C1F30A5C2DE9F04106469E4640F2FF70C4
:104AC00083EA0105BCF1000F08D0844506D0C3F38A
:104AD0000A58B8F1000F01D0804505D14A0012F5FF
:104AE000001F57D9002076E0730D43EAC123510D12
:104AF000F002D20241EACE21904243F0004341F05D
:104B0000004173EB01064FF000074FF03506ACEBA8
:104B1000080C28BF40084FEA520228BF40EAC37081
:104B200042EAC17232BF0CF2FD3C5B080CF2FE3C63
:104B30004908904273EB010E4FEA470704D3801AED
:104B400063EB010347F0010700185B41212E14D0ED
:104B5000013EEED1904273EB010102D3013708BF51
:104B6000013440F2FD72944505F0004308D8384600
:104B700003EB0C531919BDE8F0813C462026D8E719
:104B8000BCF1000F03DB43F0FF4343F4E0030020DC
:104B90001946F0E74FEA4E0010F5001FA2D84EEA82
:104BA00001035B00B3F5001F9CD3B2F5001F05F0B5
:104BB0000043ECD3B0F5001F05D243F0FF410020C5
:104BC00041F4E001D7E710F5001FF6D112F5001F00
:104BD0004FF00000DCD10149CDE700BF0000F87FB5
:104BE0009C464B40F0B504460E46174605D5BDE839
:104BF000F0400CF1004300F0CDB88C4503D8824260
:104C000009D38C4507D103F100435E408CEA030CC5
:104C100023463C461F4640F2FF71C6F30A524FEA54
:104C20001C508A424FEA1655C0EB165304D132038A
:104C300000F0A5800020A6E0934204D1002B00F0F4
:104C4000A48031468CE0C6F3130ECCF313011F2B66
:104C50004EF4801241F4801154D82030401B21FAC8
:104C600003FC27FA03F381401943611A0C46A2EBB7
:104C70000C0207FA00F336D2013A0BB15B424C1E2C
:104C800012F4C01F5AD1E10FDB0F41EA420743EA99
:104C9000440357EA030278D0023D7A0B2CD07A0CF9
:104CA00001BF1A0F42EA07171B01043DFA0C01BFAE
:104CB0009A0F42EA87079B00023D3A0D02BFDA0FC6
:104CC00042EA470705F1FF354FEAD67208BF5B009D
:104CD000B2EBD52F4FF0000006BF184607EB055189
:104CE00006F00041F0BD002BCAD04C1EC3F10003FA
:104CF00038BF02F1FF32C3E71A0E42EA07271B0250
:104D0000083DCAE7352B29D8203B21FA03F0201AA9
:104D1000C3F1200638BF02F1FF3227FA03F3B14096
:104D20003F06044643EA010306D043F0FF035B421B
:104D3000441E18B9013A01E0002BF8D1D10209D480
:104D4000013D6E050ED0E10F41EA4202D90F41EA62
:104D500044045B00002B22F4801E06DB0EEB0551A1
:104D60002046BFE730462905BCE7013408BF0EF1F5
:104D7000010EB3F1004F08BF24F00104EEE700205C
:104D8000002B7FF45EAF0249ACE700200021A9E7C9
:104D90000000F87F2DE9F0031F463D4695EA010F1C
:104DA0000C460346174605D505F10043BDE8F00360
:104DB000FFF716BF8D4288BF2C4640F2FF7684BFB6
:104DC0000D460746C4F30A5088BF1346290DB0426A
:104DD0004FEA1452C1EB145C04D1220307D0002027
:104DE0003A4937E0844504D1BCF1000F69D021462F
:104DF00039E0C4F31306C5F31305BCF11F0F46F4E5
:104E0000801645F4801528D82031891A25FA0CF02F
:104E10008D4027FA0CFC45EA0C055D192B4606442B
:104E200007FA01F134D30136B50237D5013309B998
:104E300023F00203240D240504EB5604610011F550
:104E4000001F35BF21460020F607013234BF46EA75
:104E500053001105BDE8F0037047BCF1350F04D9CC
:104E6000013A06EB02511846F4E7ACF1200125FAAD
:104E700001F018180346C1F1200005FA00F527FAE1
:104E800001F128BF013629433F0618BF41F0FF0159
:104E9000B0020ED5013308BF0136C8E7002902F180
:104EA000FF32DEDA0133B1F1004F08BF23F0010316
:104EB000D7E7002902F1FF32D3DA013308BF013608
:104EC000F1E7604604F00041C4E700BF0000F87F4E
:104ED0000246C80240EA525040F21E42A2EB115272
:104EE00040F00040FF2A20FA02F011D912F4E06FDE
:104EF00001D14042704711F0804009D04A0012F5BC
:104F0000001F04D86FF0004000EBD1707047002004
:104F10007047F0B1030C0CBF000401F18071030E67
:104F20000CBF000201F50001030F0CBF000101F5E9
:104F30008001830F0CBF800001F500110028ACBF79
:104F4000400001F5801101EBE023420510461946AF
:104F5000704700200021704710F0004118BF404208
:104F600001F18041FFF7D5BF30B50C46014650EA4C
:104F700044004FEA440508D152EA43010FD09C4255
:104F800002D1B2FA82F0400930BD9C4209D191426F
:104F900007D115F5001F8CBF00200120F4E7012088
:104FA000F2E70020F0E730B551EA03048C460BD459
:104FB0005C0014F5001F21D899421DD31ED19042E8
:104FC0002CBF0020012030BD4FEA4C0515F5001F15
:104FD00014D85C0014F5001F10D8054307D154EA1B
:104FE0000200F0D09C4594BF00200120EBE79C45D7
:104FF00002D803D19042F6E70120E4E70020E2E77F
:1050000030B50C46194654EA01030BD44B0013F596
:10501000001F1ED88C421ED31BD190428CBF002093
:10502000012030BD650015F5001F12D84B0013F5A7
:10503000001F0ED88C420ED804D1904234BF0020FD
:105040000120EEE7034313432B430CBF0120002054
:10505000E7E70020E5E70120E3E730B50C46194615
:1050600054EA01034FEA44050AD415F5001F1DD880
:105070008C421DD81AD1904234BF0020012030BD8F
:1050800015F5001F12D84B0013F5001F0ED88C42E7
:105090000ED304D190428CBF00200120EFE70343E0
:1050A00013432B430CBF01200020E8E70020E6E774
:1050B0000120E4E740EA0103DB0703460CD4034682
:1050C000043A22BF51F804CB43F804CBB2F10402F6
:1050D000F7D2043208BF7047013A24BF11F801CB60
:1050E00003F801CBF8D87047034613F0030F0ED135
:1050F00001F0FF0141EA012141EA0141043A24BFE4
:1051000043F8041BB2F10402F9D202F10402013A9D
:1051100024BF03F8011BFAE77047FFFF182001497D
:10512000ABBE70472600020003B469460220ABBE46
:1051300002B0704703B469460C20ABBE02B07047A2
:1051400003B469460920ABBE02B0704703B4694698
:105150000E20ABBE02B0704703B469460A20ABBE56
:1051600002B070470FB469460D20ABBE04B0704763
:105170000FB469460520ABBE04B07047537461722A
:10518000742067616D6500005265736574207363F8
:105190006F726500486967682073636F726500000D
:1051A0004372656469747300457869740000000097
:1051B000256320257300000057656C636F6D6500E3
:1051C0005245464C454B5300486967682073636FEE
:1051D00072653A002575206D730000002E000000F6
:1051E000486561742075702E2E2E0000546872750B
:1051F0007374204F4B00000046697265206C617328
:1052000065720000576561706F6E732061726D6525
:105210006400000041492073796E636564000000FA
:10522000456E67696E6573206F6E6C696E65000010
:10523000436F726520737461626C650057617270B0
:1052400020726561647900005363616E6E696E67F8
:1052500000000000574149542E2E2E0025750000F5
:105260004E4557205245434F5244210047616D65DA
:1052700020436F6D706C6574652100004176673A5C
:1052800020256C75206D7300426573743A20257576
:10529000206D730052657365742048530000000050
:1052A0006279000050617472796B00004B72617713
:1052B000637A796B0000000045786974696E672E27
:1052C0002E2E00FFDC510000C0520000585200009A
:1052D000E0510000EC510000F851000004520000C1
:1052E0001452000020520000305200003C520000D6
:1052F0004852000080402010080402010000000015
:10530000000000008080808080008000A0A0A000BD
:10531000000000005050F850F85050002078A07065
:1053200028F02000C0C81020409818006090A040CD
:10533000A8906800C04080000000000020408080ED
:10534000804020008040202020408000005020F835
:1053500020500000002020F8202000000000000065
:1053600000C04080000000F80000000000000000C5
:1053700000C0C0000008102040800000708898A87D
:10538000C8887000206020202020700070880830BD
:105390004080F80070880830088870001030509005
:1053A000F8101000F880F00808887000304080F095
:1053B00088887000F808102040404000708888708D
:1053C00088887000708888780810600000C0C0006D
:1053D000C0C000000000C0C000C04080102040805D
:1053E000402010000000F800F8000000804020106D
:1053F0002040800070880810200020007088086815
:10540000A8A87000708888F888888800F08888F0DC
:105410008888F0007088808080887000E09088889C
:105420008890E000F88080F08080F800F88080F0BC
:10543000808080007088808098887800888888F8CC
:1054400088888800E04040404040E000381010105C
:10545000109060008890A0C0A0908800808080801C
:105460008080F80088D8A8A8888888008888C8A87C
:10547000988888007088888888887000F08888F00C
:105480008080800070888888A8906800F08888F004
:10549000A09088007088807008887000F820202014
:1054A00020202000888888888888700088888888DC
:1054B00088502000888888A8A8A850008888502094
:1054C000508888008888502020202000F80810206C
:1054D0004080F800E08080808080E00000804020F4
:1054E00010080000E02020202020E000205088004C
:1054F0000000000000000000000000F880402000D4
:105500000000000000007008788878008080B0C833
:105510008888F0000000609080906000080868981B
:105520008888780000007088F8807000205040E083
:105530004040400000007888887808708080B0C8BB
:1055400088888800400040404040400020006020A3
:10555000202020C0808090A0C0A09000C04040408B
:105560004040E0000000D0A8A88888000000B0D02B
:105570009090900000006090909060000000E0909B
:1055800090E08080000070909070101000005060DB
:1055900040404000000070806010E0004040E0406B
:1055A000404060000000909090907000000088885B
:1055B0008850200000008888A8A85000000088506B
:1055C0002050880000009090907010600000F8104B
:1055D0002040F800204040804040200040404040B3
:1055E00040404000804040204040800068900000E3
:1055F00000000000F8F8F8F8F8F8F8002B00200098
:105600002D003078256370256400305825635025BF
:105610006400307825632E252E2A6C6C7870256402
:1056200000305825632E252E2A6C6C5850256400B6
:1056300072007700286E756C6C2900305800307845
:105640000030003031323334353637383941424357
:1056500044454600303132333435363738396162AB
:1056600063646566002A2A2A205F437379735F6149
:105670006C6C6F63206661696C65640A00FFFFFFF4
:04568000080000001E
:105684007C5100008851000094510000A05100009A
:10569400A8510000E0080000E8070000E80E000040
:1056A400490D00008F0C0000D60B0000310B0000E8
:1056B4008F0A0000F709000062080000700400006F
:1056C400F403000078070000A7060000ED050000C1
:1056D40098050000FB040000FBDFFF24AFE0A22BD1
:1056E4003230A72022FFFFFFFFFFFFFF213874A8FD
:1056F400707110298FACFF7CFFB9046103F9127833
:105704002CFFFFFFFFFFFFFFFFFFFEFF2138F8A87C
:10571400707102398FACFF7CFFB9B86103F912785C
:10572400BCFFFFFFFFFFFF7DCD0300000000010071
:1057340000A24A0436000000170000000100000027
:10574400858ED766098CD3D5F5D8090AFB871FBF88
:1057540067F78DCB6907F7BD34123D50C8844F7F7E
:10576400A302DE61AE8D40A7E8BD247AEAA21551FA
:10577400572EE6BBFF7FD5F67A832A63771D8613FF
:105784007C2E9FE105575F692E6B93876E9AA1501B
:10579400940E8B72AE55CCC5B18A0AB1D7726F859F
:1057A400175C22D0A3FDC4516198ED899F82DBF17F
:1057B4009DC5FBBC89C1EE8359B15963305C50CCA3
:1057C400C95ABC9CF930E22F425EF639D27B15757A
:1057D400FB58C1403E9AEB27D9A282C5C2D66905BF
:1057E400B3308EEDD2DD831041A41D1F15E2605647
:1057F400C52FF30499EF8EE10832594A4CED7B5BD7
:1058040040FC0281D9415351FA3DFFACB56C096D9E
:085814001DCCB32BFF153D254F
:0400000300000139BF
:00000001FF
